{
  "_format": "hh-sol-artifact-1",
  "contractName": "WavePortal",
  "sourceName": "contracts/WavePortal.sol",
  "abi": [
    {
      "inputs": [],
      "stateMutability": "payable",
      "type": "constructor"
    },
    {
      "anonymous": false,
      "inputs": [
        {
          "indexed": true,
          "internalType": "address",
          "name": "from",
          "type": "address"
        },
        {
          "indexed": false,
          "internalType": "uint256",
          "name": "timestamp",
          "type": "uint256"
        },
        {
          "indexed": false,
          "internalType": "string",
          "name": "message",
          "type": "string"
        }
      ],
      "name": "newWave",
      "type": "event"
    },
    {
      "inputs": [],
      "name": "getAll",
      "outputs": [
        {
          "components": [
            {
              "internalType": "address",
              "name": "sender",
              "type": "address"
            },
            {
              "internalType": "uint256",
              "name": "timestamp",
              "type": "uint256"
            },
            {
              "internalType": "string",
              "name": "message",
              "type": "string"
            }
          ],
          "internalType": "struct WavePortal.Wave[]",
          "name": "",
          "type": "tuple[]"
        }
      ],
      "stateMutability": "view",
      "type": "function"
    },
    {
      "inputs": [],
      "name": "getTotalWaves",
      "outputs": [
        {
          "internalType": "uint256",
          "name": "",
          "type": "uint256"
        }
      ],
      "stateMutability": "view",
      "type": "function"
    },
    {
      "inputs": [
        {
          "internalType": "string",
          "name": "_message",
          "type": "string"
        }
      ],
      "name": "wave",
      "outputs": [],
      "stateMutability": "nonpayable",
      "type": "function"
    }
  ],
  "bytecode": "0x6080604052620000336040518060600160405280602881526020016200139c602891396200005b60201b620005a91760201c565b60644442620000439190620001a8565b6200004f919062000245565b600181905550620002ec565b620000fb8160405160240162000072919062000168565b6040516020818303038152906040527f41304fac000000000000000000000000000000000000000000000000000000007bffffffffffffffffffffffffffffffffffffffffffffffffffffffff19166020820180517bffffffffffffffffffffffffffffffffffffffffffffffffffffffff8381831617835250505050620000fe60201b60201c565b50565b60008151905060006a636f6e736f6c652e6c6f679050602083016000808483855afa5050505050565b600062000134826200018c565b62000140818562000197565b9350620001528185602086016200020f565b6200015d81620002db565b840191505092915050565b6000602082019050818103600083015262000184818462000127565b905092915050565b600081519050919050565b600082825260208201905092915050565b6000620001b58262000205565b9150620001c28362000205565b9250827fffffffffffffffffffffffffffffffffffffffffffffffffffffffffffffffff03821115620001fa57620001f96200027d565b5b828201905092915050565b6000819050919050565b60005b838110156200022f57808201518184015260208101905062000212565b838111156200023f576000848401525b50505050565b6000620002528262000205565b91506200025f8362000205565b925082620002725762000271620002ac565b5b828206905092915050565b7f4e487b7100000000000000000000000000000000000000000000000000000000600052601160045260246000fd5b7f4e487b7100000000000000000000000000000000000000000000000000000000600052601260045260246000fd5b6000601f19601f8301169050919050565b6110a080620002fc6000396000f3fe608060405234801561001057600080fd5b50600436106100415760003560e01c8063449d46c01461004657806353ed5143146100625780639a2cdc0814610080575b600080fd5b610060600480360381019061005b91906108b1565b61009e565b005b61006a61040d565b6040516100779190610b1a565b60405180910390f35b61008861055e565b6040516100959190610c33565b60405180910390f35b42610384600360003373ffffffffffffffffffffffffffffffffffffffff1673ffffffffffffffffffffffffffffffffffffffff168152602001908152602001600020546100ec9190610d45565b1061012c576040517f08c379a000000000000000000000000000000000000000000000000000000000815260040161012390610c13565b60405180910390fd5b42600360003373ffffffffffffffffffffffffffffffffffffffff1673ffffffffffffffffffffffffffffffffffffffff1681526020019081526020016000208190555060016000808282546101829190610d45565b925050819055506101c96040518060400160405280601c81526020017f2573206861732073656e7420746865206d6573736167653a27257327000000008152503383610642565b600260405180606001604052803373ffffffffffffffffffffffffffffffffffffffff16815260200142815260200183815250908060018154018082558091505060019003906000526020600020906003020160009091909190915060008201518160000160006101000a81548173ffffffffffffffffffffffffffffffffffffffff021916908373ffffffffffffffffffffffffffffffffffffffff1602179055506020820151816001015560408201518160020190805190602001906102929291906107a6565b505050606444426102a39190610d45565b6102ad9190610e7c565b600181905550600a600154116103ba576000655af3107a400090504781111561030b576040517f08c379a000000000000000000000000000000000000000000000000000000000815260040161030290610bd3565b60405180910390fd5b60003373ffffffffffffffffffffffffffffffffffffffff168260405161033190610b05565b60006040518083038185875af1925050503d806000811461036e576040519150601f19603f3d011682016040523d82523d6000602084013e610373565b606091505b50509050806103b7576040517f08c379a00000000000000000000000000000000000000000000000000000000081526004016103ae90610bf3565b60405180910390fd5b50505b3373ffffffffffffffffffffffffffffffffffffffff167f827fc0b1433d32e3710239670a4c525416496a64d64f2374a5e4ea595c0738c64283604051610402929190610c4e565b60405180910390a250565b60606002805480602002602001604051908101604052809291908181526020016000905b8282101561055557838290600052602060002090600302016040518060600160405290816000820160009054906101000a900473ffffffffffffffffffffffffffffffffffffffff1673ffffffffffffffffffffffffffffffffffffffff1673ffffffffffffffffffffffffffffffffffffffff168152602001600182015481526020016002820180546104c490610e19565b80601f01602080910402602001604051908101604052809291908181526020018280546104f090610e19565b801561053d5780601f106105125761010080835404028352916020019161053d565b820191906000526020600020905b81548152906001019060200180831161052057829003601f168201915b50505050508152505081526020019060010190610431565b50505050905090565b60006105a16040518060400160405280601f81526020017f25732069732074686520746f74616c206e756d626572206f66207761766573008152506000546106e1565b600054905090565b61063f816040516024016105bd9190610b3c565b6040516020818303038152906040527f41304fac000000000000000000000000000000000000000000000000000000007bffffffffffffffffffffffffffffffffffffffffffffffffffffffff19166020820180517bffffffffffffffffffffffffffffffffffffffffffffffffffffffff838183161783525050505061077d565b50565b6106dc83838360405160240161065a93929190610b5e565b6040516020818303038152906040527fe0e9ad4f000000000000000000000000000000000000000000000000000000007bffffffffffffffffffffffffffffffffffffffffffffffffffffffff19166020820180517bffffffffffffffffffffffffffffffffffffffffffffffffffffffff838183161783525050505061077d565b505050565b61077982826040516024016106f7929190610ba3565b6040516020818303038152906040527f9710a9d0000000000000000000000000000000000000000000000000000000007bffffffffffffffffffffffffffffffffffffffffffffffffffffffff19166020820180517bffffffffffffffffffffffffffffffffffffffffffffffffffffffff838183161783525050505061077d565b5050565b60008151905060006a636f6e736f6c652e6c6f679050602083016000808483855afa5050505050565b8280546107b290610e19565b90600052602060002090601f0160209004810192826107d4576000855561081b565b82601f106107ed57805160ff191683800117855561081b565b8280016001018555821561081b579182015b8281111561081a5782518255916020019190600101906107ff565b5b509050610828919061082c565b5090565b5b8082111561084557600081600090555060010161082d565b5090565b600061085c61085784610ca3565b610c7e565b90508281526020810184848401111561087457600080fd5b61087f848285610dd7565b509392505050565b600082601f83011261089857600080fd5b81356108a8848260208601610849565b91505092915050565b6000602082840312156108c357600080fd5b600082013567ffffffffffffffff8111156108dd57600080fd5b6108e984828501610887565b91505092915050565b60006108fe8383610a97565b905092915050565b61090f81610d9b565b82525050565b61091e81610d9b565b82525050565b600061092f82610ce4565b6109398185610d07565b93508360208202850161094b85610cd4565b8060005b85811015610987578484038952815161096885826108f2565b945061097383610cfa565b925060208a0199505060018101905061094f565b50829750879550505050505092915050565b60006109a482610cef565b6109ae8185610d23565b93506109be818560208601610de6565b6109c781610f69565b840191505092915050565b60006109dd82610cef565b6109e78185610d34565b93506109f7818560208601610de6565b610a0081610f69565b840191505092915050565b6000610a18603483610d34565b9150610a2382610f7a565b604082019050919050565b6000610a3b602783610d34565b9150610a4682610fc9565b604082019050919050565b6000610a5e600083610d18565b9150610a6982611018565b600082019050919050565b6000610a81602983610d34565b9150610a8c8261101b565b604082019050919050565b6000606083016000830151610aaf6000860182610906565b506020830151610ac26020860182610ae7565b5060408301518482036040860152610ada8282610999565b9150508091505092915050565b610af081610dcd565b82525050565b610aff81610dcd565b82525050565b6000610b1082610a51565b9150819050919050565b60006020820190508181036000830152610b348184610924565b905092915050565b60006020820190508181036000830152610b5681846109d2565b905092915050565b60006060820190508181036000830152610b7881866109d2565b9050610b876020830185610915565b8181036040830152610b9981846109d2565b9050949350505050565b60006040820190508181036000830152610bbd81856109d2565b9050610bcc6020830184610af6565b9392505050565b60006020820190508181036000830152610bec81610a0b565b9050919050565b60006020820190508181036000830152610c0c81610a2e565b9050919050565b60006020820190508181036000830152610c2c81610a74565b9050919050565b6000602082019050610c486000830184610af6565b92915050565b6000604082019050610c636000830185610af6565b8181036020830152610c7581846109d2565b90509392505050565b6000610c88610c99565b9050610c948282610e4b565b919050565b6000604051905090565b600067ffffffffffffffff821115610cbe57610cbd610f3a565b5b610cc782610f69565b9050602081019050919050565b6000819050602082019050919050565b600081519050919050565b600081519050919050565b6000602082019050919050565b600082825260208201905092915050565b600081905092915050565b600082825260208201905092915050565b600082825260208201905092915050565b6000610d5082610dcd565b9150610d5b83610dcd565b9250827fffffffffffffffffffffffffffffffffffffffffffffffffffffffffffffffff03821115610d9057610d8f610ead565b5b828201905092915050565b6000610da682610dad565b9050919050565b600073ffffffffffffffffffffffffffffffffffffffff82169050919050565b6000819050919050565b82818337600083830152505050565b60005b83811015610e04578082015181840152602081019050610de9565b83811115610e13576000848401525b50505050565b60006002820490506001821680610e3157607f821691505b60208210811415610e4557610e44610f0b565b5b50919050565b610e5482610f69565b810181811067ffffffffffffffff82111715610e7357610e72610f3a565b5b80604052505050565b6000610e8782610dcd565b9150610e9283610dcd565b925082610ea257610ea1610edc565b5b828206905092915050565b7f4e487b7100000000000000000000000000000000000000000000000000000000600052601160045260246000fd5b7f4e487b7100000000000000000000000000000000000000000000000000000000600052601260045260246000fd5b7f4e487b7100000000000000000000000000000000000000000000000000000000600052602260045260246000fd5b7f4e487b7100000000000000000000000000000000000000000000000000000000600052604160045260246000fd5b6000601f19601f8301169050919050565b7f5468697320636f6e747261637420686173206c6573736572206d6f6e6579207460008201527f68616e20746865207072697a6520616d6f756e74000000000000000000000000602082015250565b7f4661696c656420746f207769746864726177206d6f6e65792066726f6d20636f60008201527f6e74726163742e00000000000000000000000000000000000000000000000000602082015250565b50565b7f57616974203135206d696e7574657320746f206d616b6520796f7572206e657860008201527f742072657175657374000000000000000000000000000000000000000000000060208201525056fea26469706673582212205ff643b15df3fd6ab53b39ef2e76efe3dfd5fa886efe58e040d6606ec8a198cf64736f6c634300080400335768617420757020776f726c642c2069747320796120626f7920536d617274436f6e74726163742e",
  "linkReferences": {},
  "deployedLinkReferences": {}
}